{
  "contractName": "MyContract",
  "abi": [
    {
      "inputs": [
        {
          "internalType": "uint256",
          "name": "value",
          "type": "uint256"
        }
      ],
      "name": "mint",
      "outputs": [],
      "stateMutability": "nonpayable",
      "type": "function"
    }
  ],
  "bytecode": "0x608060405234801561001057600080fd5b506101fe806100206000396000f3fe608060405234801561001057600080fd5b506004361061002b5760003560e01c8063a0712d6814610030575b600080fd5b61004a60048036038101906100459190610138565b61004c565b005b60008054906101000a900473ffffffffffffffffffffffffffffffffffffffff1673ffffffffffffffffffffffffffffffffffffffff163373ffffffffffffffffffffffffffffffffffffffff16146100a457600080fd5b80600160003373ffffffffffffffffffffffffffffffffffffffff1673ffffffffffffffffffffffffffffffffffffffff16815260200190815260200160002060008282546100f39190610194565b9250508190555050565b600080fd5b6000819050919050565b61011581610102565b811461012057600080fd5b50565b6000813590506101328161010c565b92915050565b60006020828403121561014e5761014d6100fd565b5b600061015c84828501610123565b91505092915050565b7f4e487b7100000000000000000000000000000000000000000000000000000000600052601160045260246000fd5b600061019f82610102565b91506101aa83610102565b92508282019050808211156101c2576101c1610165565b5b9291505056fea26469706673582212207e3fe301e5c54549701cc92664b9216dd49fd62081717a704b30b15a1a5104a364736f6c63430008130033",
  "immutableReferences": {},
  "source": "// SPDX-License-Identifier: MITj\r\npragma solidity >=0.4.22 <0.9.0;\r\n\r\ncontract Owner{\r\n\r\n    address  owner;\r\n\r\n    modifier onlyOwner(){\r\n        require(msg.sender == owner);\r\n        _;\r\n    }\r\n\r\n}\r\n\r\ncontract MyContract is Owner {\r\n\r\n    mapping(address => uint) balances;\r\n\r\n  \r\n    function mint(uint value) onlyOwner public{\r\n        balances[msg.sender] += value;\r\n    }    \r\n\r\n}",
  "sourcePath": "D:\\smart_contracts\\erc_demo\\contracts\\dummy.sol",
  "compiler": {
    "name": "solc",
    "version": "0.8.19+commit.7dd6d404.Emscripten.clang"
  },
  "schemaVersion": "3.4.13",
  "updatedAt": "2023-03-08T15:58:23.306Z",
  "devdoc": {
    "kind": "dev",
    "methods": {},
    "version": 1
  },
  "userdoc": {
    "kind": "user",
    "methods": {},
    "version": 1
  }
}